{
  "_format": "hh-sol-artifact-1",
  "contractName": "SocialBetting",
  "sourceName": "contracts/SocialBetting.sol",
  "abi": [
    {
      "anonymous": false,
      "inputs": [
        {
          "indexed": true,
          "internalType": "uint256",
          "name": "challengeId",
          "type": "uint256"
        },
        {
          "indexed": true,
          "internalType": "address",
          "name": "arbiter",
          "type": "address"
        }
      ],
      "name": "ArbiterAssigned",
      "type": "event"
    },
    {
      "anonymous": false,
      "inputs": [
        {
          "indexed": true,
          "internalType": "uint256",
          "name": "betId",
          "type": "uint256"
        },
        {
          "indexed": true,
          "internalType": "address",
          "name": "acceptor",
          "type": "address"
        },
        {
          "indexed": false,
          "internalType": "uint256",
          "name": "stake",
          "type": "uint256"
        }
      ],
      "name": "BetAccepted",
      "type": "event"
    },
    {
      "anonymous": false,
      "inputs": [
        {
          "indexed": true,
          "internalType": "uint256",
          "name": "betId",
          "type": "uint256"
        },
        {
          "indexed": true,
          "internalType": "address",
          "name": "creator",
          "type": "address"
        },
        {
          "indexed": false,
          "internalType": "uint256",
          "name": "stake",
          "type": "uint256"
        },
        {
          "indexed": false,
          "internalType": "string",
          "name": "description",
          "type": "string"
        },
        {
          "indexed": false,
          "internalType": "uint256",
          "name": "duration",
          "type": "uint256"
        }
      ],
      "name": "BetCreated",
      "type": "event"
    },
    {
      "anonymous": false,
      "inputs": [
        {
          "indexed": true,
          "internalType": "uint256",
          "name": "betId",
          "type": "uint256"
        },
        {
          "indexed": false,
          "internalType": "address",
          "name": "winner",
          "type": "address"
        },
        {
          "indexed": false,
          "internalType": "uint256",
          "name": "payout",
          "type": "uint256"
        }
      ],
      "name": "BetResolved",
      "type": "event"
    },
    {
      "anonymous": false,
      "inputs": [
        {
          "indexed": true,
          "internalType": "uint256",
          "name": "challengeId",
          "type": "uint256"
        },
        {
          "indexed": true,
          "internalType": "address",
          "name": "accepter",
          "type": "address"
        }
      ],
      "name": "ChallengeAccepted",
      "type": "event"
    },
    {
      "anonymous": false,
      "inputs": [
        {
          "indexed": true,
          "internalType": "uint256",
          "name": "challengeId",
          "type": "uint256"
        },
        {
          "indexed": true,
          "internalType": "address",
          "name": "challenger",
          "type": "address"
        },
        {
          "indexed": false,
          "internalType": "uint256",
          "name": "wagerAmount",
          "type": "uint256"
        },
        {
          "indexed": false,
          "internalType": "string",
          "name": "prediction",
          "type": "string"
        },
        {
          "indexed": false,
          "internalType": "uint256",
          "name": "startTime",
          "type": "uint256"
        },
        {
          "indexed": false,
          "internalType": "uint256",
          "name": "endTime",
          "type": "uint256"
        }
      ],
      "name": "ChallengeCreated",
      "type": "event"
    },
    {
      "anonymous": false,
      "inputs": [
        {
          "indexed": true,
          "internalType": "uint256",
          "name": "challengeId",
          "type": "uint256"
        },
        {
          "indexed": false,
          "internalType": "string",
          "name": "newPrediction",
          "type": "string"
        },
        {
          "indexed": false,
          "internalType": "uint256",
          "name": "newWagerAmount",
          "type": "uint256"
        }
      ],
      "name": "ChallengeModified",
      "type": "event"
    },
    {
      "anonymous": false,
      "inputs": [
        {
          "indexed": true,
          "internalType": "uint256",
          "name": "challengeId",
          "type": "uint256"
        },
        {
          "indexed": false,
          "internalType": "address",
          "name": "winner",
          "type": "address"
        },
        {
          "indexed": false,
          "internalType": "uint256",
          "name": "payout",
          "type": "uint256"
        }
      ],
      "name": "ChallengeResolved",
      "type": "event"
    },
    {
      "anonymous": false,
      "inputs": [
        {
          "indexed": true,
          "internalType": "uint256",
          "name": "challengeId",
          "type": "uint256"
        },
        {
          "indexed": true,
          "internalType": "address",
          "name": "voter",
          "type": "address"
        },
        {
          "indexed": false,
          "internalType": "bool",
          "name": "vote",
          "type": "bool"
        }
      ],
      "name": "CommunityVoteCast",
      "type": "event"
    },
    {
      "anonymous": false,
      "inputs": [
        {
          "indexed": true,
          "internalType": "address",
          "name": "previousOwner",
          "type": "address"
        },
        {
          "indexed": true,
          "internalType": "address",
          "name": "newOwner",
          "type": "address"
        }
      ],
      "name": "OwnershipTransferred",
      "type": "event"
    },
    {
      "anonymous": false,
      "inputs": [
        {
          "indexed": false,
          "internalType": "address",
          "name": "account",
          "type": "address"
        }
      ],
      "name": "Paused",
      "type": "event"
    },
    {
      "anonymous": false,
      "inputs": [
        {
          "indexed": false,
          "internalType": "address",
          "name": "account",
          "type": "address"
        }
      ],
      "name": "Unpaused",
      "type": "event"
    },
    {
      "inputs": [
        {
          "internalType": "uint256",
          "name": "betId",
          "type": "uint256"
        }
      ],
      "name": "acceptBet",
      "outputs": [],
      "stateMutability": "payable",
      "type": "function"
    },
    {
      "inputs": [
        {
          "internalType": "uint256",
          "name": "",
          "type": "uint256"
        }
      ],
      "name": "bets",
      "outputs": [
        {
          "internalType": "address",
          "name": "creator",
          "type": "address"
        },
        {
          "internalType": "address",
          "name": "acceptor",
          "type": "address"
        },
        {
          "internalType": "uint256",
          "name": "stake",
          "type": "uint256"
        },
        {
          "internalType": "uint256",
          "name": "totalStake",
          "type": "uint256"
        },
        {
          "internalType": "uint256",
          "name": "createdAt",
          "type": "uint256"
        },
        {
          "internalType": "uint256",
          "name": "duration",
          "type": "uint256"
        },
        {
          "internalType": "string",
          "name": "description",
          "type": "string"
        },
        {
          "internalType": "bytes32",
          "name": "eventId",
          "type": "bytes32"
        },
        {
          "internalType": "bool",
          "name": "settled",
          "type": "bool"
        },
        {
          "internalType": "address",
          "name": "winner",
          "type": "address"
        }
      ],
      "stateMutability": "view",
      "type": "function"
    },
    {
      "inputs": [
        {
          "internalType": "uint256",
          "name": "stake",
          "type": "uint256"
        },
        {
          "internalType": "uint256",
          "name": "duration",
          "type": "uint256"
        },
        {
          "internalType": "string",
          "name": "description",
          "type": "string"
        },
        {
          "internalType": "bytes32",
          "name": "eventId",
          "type": "bytes32"
        }
      ],
      "name": "createBet",
      "outputs": [],
      "stateMutability": "payable",
      "type": "function"
    },
    {
      "inputs": [
        {
          "internalType": "address",
          "name": "_target",
          "type": "address"
        },
        {
          "internalType": "string",
          "name": "_prediction",
          "type": "string"
        },
        {
          "internalType": "uint256",
          "name": "_startTime",
          "type": "uint256"
        },
        {
          "internalType": "uint256",
          "name": "_endTime",
          "type": "uint256"
        },
        {
          "internalType": "address",
          "name": "_wagerToken",
          "type": "address"
        },
        {
          "internalType": "uint256",
          "name": "_wagerAmount",
          "type": "uint256"
        },
        {
          "internalType": "enum SocialBetting.ChallengeType",
          "name": "_challengeType",
          "type": "uint8"
        },
        {
          "internalType": "address",
          "name": "_arbiter",
          "type": "address"
        },
        {
          "internalType": "uint256",
          "name": "_votingThreshold",
          "type": "uint256"
        }
      ],
      "name": "createChallenge",
      "outputs": [],
      "stateMutability": "payable",
      "type": "function"
    },
    {
      "inputs": [
        {
          "internalType": "uint256",
          "name": "_challengeId",
          "type": "uint256"
        },
        {
          "internalType": "string",
          "name": "_newPrediction",
          "type": "string"
        },
        {
          "internalType": "uint256",
          "name": "_newWagerAmount",
          "type": "uint256"
        }
      ],
      "name": "modifyChallenge",
      "outputs": [],
      "stateMutability": "nonpayable",
      "type": "function"
    },
    {
      "inputs": [],
      "name": "owner",
      "outputs": [
        {
          "internalType": "address",
          "name": "",
          "type": "address"
        }
      ],
      "stateMutability": "view",
      "type": "function"
    },
    {
      "inputs": [],
      "name": "paused",
      "outputs": [
        {
          "internalType": "bool",
          "name": "",
          "type": "bool"
        }
      ],
      "stateMutability": "view",
      "type": "function"
    },
    {
      "inputs": [],
      "name": "renounceOwnership",
      "outputs": [],
      "stateMutability": "nonpayable",
      "type": "function"
    },
    {
      "inputs": [
        {
          "internalType": "uint256",
          "name": "betId",
          "type": "uint256"
        },
        {
          "internalType": "address",
          "name": "winner",
          "type": "address"
        }
      ],
      "name": "resolveBet",
      "outputs": [],
      "stateMutability": "nonpayable",
      "type": "function"
    },
    {
      "inputs": [
        {
          "internalType": "bytes32",
          "name": "",
          "type": "bytes32"
        }
      ],
      "name": "resolvedEvents",
      "outputs": [
        {
          "internalType": "bool",
          "name": "",
          "type": "bool"
        }
      ],
      "stateMutability": "view",
      "type": "function"
    },
    {
      "inputs": [
        {
          "internalType": "address",
          "name": "newOwner",
          "type": "address"
        }
      ],
      "name": "transferOwnership",
      "outputs": [],
      "stateMutability": "nonpayable",
      "type": "function"
    },
    {
      "inputs": [
        {
          "internalType": "uint256",
          "name": "_challengeId",
          "type": "uint256"
        },
        {
          "internalType": "uint256",
          "name": "_newWagerAmount",
          "type": "uint256"
        }
      ],
      "name": "updateWager",
      "outputs": [],
      "stateMutability": "payable",
      "type": "function"
    }
  ],
  "bytecode": "0x60806040523480156200001157600080fd5b5060016000819055506000600160006101000a81548160ff02191690831515021790555062000055620000496200005b60201b60201c565b6200006360201b60201c565b62000126565b600033905090565b600060018054906101000a900473ffffffffffffffffffffffffffffffffffffffff169050816001806101000a81548173ffffffffffffffffffffffffffffffffffffffff021916908373ffffffffffffffffffffffffffffffffffffffff1602179055508173ffffffffffffffffffffffffffffffffffffffff168173ffffffffffffffffffffffffffffffffffffffff167f8be0079c531659141344cd1fd0a4f28419497f9722a3daafe3b4186f6b6457e060405160405180910390a35050565b612b4680620001366000396000f3fe6080604052600436106100a75760003560e01c80637423e9cc116100645780637423e9cc1461018857806381b3b29f146101b15780638da5cb5b146101da578063d68cd29714610205578063e7bcc09014610242578063f2fde38b1461025e576100a7565b806322af00fa146100ac5780632c4fd8c0146100f2578063504a63891461010e5780635c975abb1461012a5780636c0c27e114610155578063715018a614610171575b600080fd5b3480156100b857600080fd5b506100d360048036038101906100ce919061170e565b610287565b6040516100e99a9998979695949392919061184f565b60405180910390f35b61010c600480360381019061010791906118f2565b6103d0565b005b61012860048036038101906101239190611a93565b61045a565b005b34801561013657600080fd5b5061013f610743565b60405161014c9190611b16565b60405180910390f35b61016f600480360381019061016a919061170e565b61075a565b005b34801561017d57600080fd5b506101866109f0565b005b34801561019457600080fd5b506101af60048036038101906101aa9190611b31565b610a04565b005b3480156101bd57600080fd5b506101d860048036038101906101d39190611bcc565b610b92565b005b3480156101e657600080fd5b506101ef610f9b565b6040516101fc9190611c0c565b60405180910390f35b34801561021157600080fd5b5061022c60048036038101906102279190611c27565b610fc3565b6040516102399190611b16565b60405180910390f35b61025c60048036038101906102579190611c79565b610fe3565b005b34801561026a57600080fd5b5061028560048036038101906102809190611d5f565b611431565b005b60056020528060005260406000206000915090508060000160009054906101000a900473ffffffffffffffffffffffffffffffffffffffff16908060010160009054906101000a900473ffffffffffffffffffffffffffffffffffffffff169080600201549080600301549080600401549080600501549080600601805461030e90611dbb565b80601f016020809104026020016040519081016040528092919081815260200182805461033a90611dbb565b80156103875780601f1061035c57610100808354040283529160200191610387565b820191906000526020600020905b81548152906001019060200180831161036a57829003601f168201915b5050505050908060070154908060080160009054906101000a900460ff16908060080160019054906101000a900473ffffffffffffffffffffffffffffffffffffffff1690508a565b600060046000848152602001908152602001600020905080600401548211156104555760008160040154836104059190611e1b565b90508034101561044a576040517f08c379a000000000000000000000000000000000000000000000000000000000815260040161044190611e9b565b60405180910390fd5b828260040181905550505b505050565b6104626114b4565b8334146104a4576040517f08c379a000000000000000000000000000000000000000000000000000000000815260040161049b90611f2d565b60405180910390fd5b600083116104e7576040517f08c379a00000000000000000000000000000000000000000000000000000000081526004016104de90611f99565b60405180910390fd5b6104f16003611503565b60006104fd6003611519565b90506040518061014001604052803373ffffffffffffffffffffffffffffffffffffffff168152602001600073ffffffffffffffffffffffffffffffffffffffff168152602001868152602001868152602001428152602001858152602001848152602001838152602001600015158152602001600073ffffffffffffffffffffffffffffffffffffffff168152506005600083815260200190815260200160002060008201518160000160006101000a81548173ffffffffffffffffffffffffffffffffffffffff021916908373ffffffffffffffffffffffffffffffffffffffff16021790555060208201518160010160006101000a81548173ffffffffffffffffffffffffffffffffffffffff021916908373ffffffffffffffffffffffffffffffffffffffff16021790555060408201518160020155606082015181600301556080820151816004015560a0820151816005015560c082015181600601908161066a9190612165565b5060e082015181600701556101008201518160080160006101000a81548160ff0219169083151502179055506101208201518160080160016101000a81548173ffffffffffffffffffffffffffffffffffffffff021916908373ffffffffffffffffffffffffffffffffffffffff1602179055509050503373ffffffffffffffffffffffffffffffffffffffff16817f55f25f1c8a7ad8b047bcc1d499a3b6a802661f0c3263d5e80836b08e61fda0f687868860405161072c93929190612237565b60405180910390a35061073d611527565b50505050565b6000600160009054906101000a900460ff16905090565b6107626114b4565b6000600560008381526020019081526020016000209050600073ffffffffffffffffffffffffffffffffffffffff168160000160009054906101000a900473ffffffffffffffffffffffffffffffffffffffff1673ffffffffffffffffffffffffffffffffffffffff160361080c576040517f08c379a0000000000000000000000000000000000000000000000000000000008152600401610803906122c1565b60405180910390fd5b600073ffffffffffffffffffffffffffffffffffffffff168160010160009054906101000a900473ffffffffffffffffffffffffffffffffffffffff1673ffffffffffffffffffffffffffffffffffffffff161461089f576040517f08c379a00000000000000000000000000000000000000000000000000000000081526004016108969061232d565b60405180910390fd5b8060080160009054906101000a900460ff16156108f1576040517f08c379a00000000000000000000000000000000000000000000000000000000081526004016108e890612399565b60405180910390fd5b80600201543414610937576040517f08c379a000000000000000000000000000000000000000000000000000000000815260040161092e90612405565b60405180910390fd5b338160010160006101000a81548173ffffffffffffffffffffffffffffffffffffffff021916908373ffffffffffffffffffffffffffffffffffffffff1602179055503481600301600082825461098e9190612425565b925050819055503373ffffffffffffffffffffffffffffffffffffffff16827f79cb2a760e0e245df37a0cfe4656ea094080aa2cea9bef14a52a7a822fa3b2f6346040516109dc9190612459565b60405180910390a3506109ed611527565b50565b6109f8611531565b610a0260006115af565b565b610a0c6114b4565b60006004600085815260200190815260200160002090508060010160009054906101000a900473ffffffffffffffffffffffffffffffffffffffff1673ffffffffffffffffffffffffffffffffffffffff163373ffffffffffffffffffffffffffffffffffffffff1614610ab5576040517f08c379a0000000000000000000000000000000000000000000000000000000008152600401610aac906124c0565b60405180910390fd5b60006003811115610ac957610ac86124e0565b5b8160090160019054906101000a900460ff166003811115610aed57610aec6124e0565b5b14610b2d576040517f08c379a0000000000000000000000000000000000000000000000000000000008152600401610b249061255b565b60405180910390fd5b600083511115610b4a5782816003019081610b489190612165565b505b837f2bc435817a285a78de4c63a29ae9146a2c8fb2bdc8ef93c094b873fa02bfcfa08484604051610b7c92919061257b565b60405180910390a250610b8d611527565b505050565b610b9a611531565b610ba26114b4565b6000600560008481526020019081526020016000209050600073ffffffffffffffffffffffffffffffffffffffff168160000160009054906101000a900473ffffffffffffffffffffffffffffffffffffffff1673ffffffffffffffffffffffffffffffffffffffff1603610c4c576040517f08c379a0000000000000000000000000000000000000000000000000000000008152600401610c43906122c1565b60405180910390fd5b600073ffffffffffffffffffffffffffffffffffffffff168160010160009054906101000a900473ffffffffffffffffffffffffffffffffffffffff1673ffffffffffffffffffffffffffffffffffffffff1603610cdf576040517f08c379a0000000000000000000000000000000000000000000000000000000008152600401610cd6906125f7565b60405180910390fd5b8060080160009054906101000a900460ff1615610d31576040517f08c379a0000000000000000000000000000000000000000000000000000000008152600401610d2890612399565b60405180910390fd5b80600501548160040154610d459190612425565b421015610d87576040517f08c379a0000000000000000000000000000000000000000000000000000000008152600401610d7e90612663565b60405180910390fd5b8060000160009054906101000a900473ffffffffffffffffffffffffffffffffffffffff1673ffffffffffffffffffffffffffffffffffffffff168273ffffffffffffffffffffffffffffffffffffffff161480610e3457508060010160009054906101000a900473ffffffffffffffffffffffffffffffffffffffff1673ffffffffffffffffffffffffffffffffffffffff168273ffffffffffffffffffffffffffffffffffffffff16145b610e73576040517f08c379a0000000000000000000000000000000000000000000000000000000008152600401610e6a906126cf565b60405180910390fd5b60008160030154905060018260080160006101000a81548160ff021916908315150217905550828260080160016101000a81548173ffffffffffffffffffffffffffffffffffffffff021916908373ffffffffffffffffffffffffffffffffffffffff1602179055506001600660008460070154815260200190815260200160002060006101000a81548160ff0219169083151502179055508273ffffffffffffffffffffffffffffffffffffffff166108fc829081150290604051600060405180830381858888f19350505050158015610f52573d6000803e3d6000fd5b50837f96a2bff66387be9e7910e4a9ddf9ba9d0b23439aa8c0790b867617d60a8891438483604051610f859291906126ef565b60405180910390a25050610f97611527565b5050565b600060018054906101000a900473ffffffffffffffffffffffffffffffffffffffff16905090565b60066020528060005260406000206000915054906101000a900460ff1681565b610feb611672565b610ff36114b4565b428711611035576040517f08c379a000000000000000000000000000000000000000000000000000000000815260040161102c90612764565b60405180910390fd5b868611611077576040517f08c379a000000000000000000000000000000000000000000000000000000000815260040161106e906127f6565b60405180910390fd5b6110816002611503565b600061108d6002611519565b90506000600460008381526020019081526020016000209050818160000181905550338160010160006101000a81548173ffffffffffffffffffffffffffffffffffffffff021916908373ffffffffffffffffffffffffffffffffffffffff1602179055508a8160020160006101000a81548173ffffffffffffffffffffffffffffffffffffffff021916908373ffffffffffffffffffffffffffffffffffffffff160217905550898160030190816111469190612165565b50858160040181905550858160050181905550868160060160006101000a81548173ffffffffffffffffffffffffffffffffffffffff021916908373ffffffffffffffffffffffffffffffffffffffff160217905550888160070181905550878160080181905550848160090160006101000a81548160ff021916908360038111156111d5576111d46124e0565b5b021790555060008160090160016101000a81548160ff02191690836003811115611202576112016124e0565b5b02179055506002600381111561121b5761121a6124e0565b5b85600381111561122e5761122d6124e0565b5b036112a457600083118015611244575060648311155b611283576040517f08c379a000000000000000000000000000000000000000000000000000000000815260040161127a90612862565b60405180910390fd5b8281600d0181905550620151808861129b9190612425565b81600a01819055505b600160038111156112b8576112b76124e0565b5b8560038111156112cb576112ca6124e0565b5b036113c757600073ffffffffffffffffffffffffffffffffffffffff168473ffffffffffffffffffffffffffffffffffffffff160361133f576040517f08c379a0000000000000000000000000000000000000000000000000000000008152600401611336906128ce565b60405180910390fd5b8381600e0160006101000a81548173ffffffffffffffffffffffffffffffffffffffff021916908373ffffffffffffffffffffffffffffffffffffffff1602179055508373ffffffffffffffffffffffffffffffffffffffff16827fe3a61425d5621880310412d6593b034f43dedb3aff8bfe44e10f779c8c99d39a60405160405180910390a35b3373ffffffffffffffffffffffffffffffffffffffff16827f1c1fb6f30b38d9292af4c83a46614816d89dd56de9b082080d4e220e7c6e3b23888d8d8d60405161141494939291906128ee565b60405180910390a35050611426611527565b505050505050505050565b611439611531565b600073ffffffffffffffffffffffffffffffffffffffff168173ffffffffffffffffffffffffffffffffffffffff16036114a8576040517f08c379a000000000000000000000000000000000000000000000000000000000815260040161149f906129ac565b60405180910390fd5b6114b1816115af565b50565b6002600054036114f9576040517f08c379a00000000000000000000000000000000000000000000000000000000081526004016114f090612a18565b60405180910390fd5b6002600081905550565b6001816000016000828254019250508190555050565b600081600001549050919050565b6001600081905550565b6115396116bc565b73ffffffffffffffffffffffffffffffffffffffff16611557610f9b565b73ffffffffffffffffffffffffffffffffffffffff16146115ad576040517f08c379a00000000000000000000000000000000000000000000000000000000081526004016115a490612a84565b60405180910390fd5b565b600060018054906101000a900473ffffffffffffffffffffffffffffffffffffffff169050816001806101000a81548173ffffffffffffffffffffffffffffffffffffffff021916908373ffffffffffffffffffffffffffffffffffffffff1602179055508173ffffffffffffffffffffffffffffffffffffffff168173ffffffffffffffffffffffffffffffffffffffff167f8be0079c531659141344cd1fd0a4f28419497f9722a3daafe3b4186f6b6457e060405160405180910390a35050565b61167a610743565b156116ba576040517f08c379a00000000000000000000000000000000000000000000000000000000081526004016116b190612af0565b60405180910390fd5b565b600033905090565b6000604051905090565b600080fd5b600080fd5b6000819050919050565b6116eb816116d8565b81146116f657600080fd5b50565b600081359050611708816116e2565b92915050565b600060208284031215611724576117236116ce565b5b6000611732848285016116f9565b91505092915050565b600073ffffffffffffffffffffffffffffffffffffffff82169050919050565b60006117668261173b565b9050919050565b6117768161175b565b82525050565b611785816116d8565b82525050565b600081519050919050565b600082825260208201905092915050565b60005b838110156117c55780820151818401526020810190506117aa565b60008484015250505050565b6000601f19601f8301169050919050565b60006117ed8261178b565b6117f78185611796565b93506118078185602086016117a7565b611810816117d1565b840191505092915050565b6000819050919050565b61182e8161181b565b82525050565b60008115159050919050565b61184981611834565b82525050565b600061014082019050611865600083018d61176d565b611872602083018c61176d565b61187f604083018b61177c565b61188c606083018a61177c565b611899608083018961177c565b6118a660a083018861177c565b81810360c08301526118b881876117e2565b90506118c760e0830186611825565b6118d5610100830185611840565b6118e361012083018461176d565b9b9a5050505050505050505050565b60008060408385031215611909576119086116ce565b5b6000611917858286016116f9565b9250506020611928858286016116f9565b9150509250929050565b600080fd5b600080fd5b7f4e487b7100000000000000000000000000000000000000000000000000000000600052604160045260246000fd5b611974826117d1565b810181811067ffffffffffffffff821117156119935761199261193c565b5b80604052505050565b60006119a66116c4565b90506119b2828261196b565b919050565b600067ffffffffffffffff8211156119d2576119d161193c565b5b6119db826117d1565b9050602081019050919050565b82818337600083830152505050565b6000611a0a611a05846119b7565b61199c565b905082815260208101848484011115611a2657611a25611937565b5b611a318482856119e8565b509392505050565b600082601f830112611a4e57611a4d611932565b5b8135611a5e8482602086016119f7565b91505092915050565b611a708161181b565b8114611a7b57600080fd5b50565b600081359050611a8d81611a67565b92915050565b60008060008060808587031215611aad57611aac6116ce565b5b6000611abb878288016116f9565b9450506020611acc878288016116f9565b935050604085013567ffffffffffffffff811115611aed57611aec6116d3565b5b611af987828801611a39565b9250506060611b0a87828801611a7e565b91505092959194509250565b6000602082019050611b2b6000830184611840565b92915050565b600080600060608486031215611b4a57611b496116ce565b5b6000611b58868287016116f9565b935050602084013567ffffffffffffffff811115611b7957611b786116d3565b5b611b8586828701611a39565b9250506040611b96868287016116f9565b9150509250925092565b611ba98161175b565b8114611bb457600080fd5b50565b600081359050611bc681611ba0565b92915050565b60008060408385031215611be357611be26116ce565b5b6000611bf1858286016116f9565b9250506020611c0285828601611bb7565b9150509250929050565b6000602082019050611c21600083018461176d565b92915050565b600060208284031215611c3d57611c3c6116ce565b5b6000611c4b84828501611a7e565b91505092915050565b60048110611c6157600080fd5b50565b600081359050611c7381611c54565b92915050565b60008060008060008060008060006101208a8c031215611c9c57611c9b6116ce565b5b6000611caa8c828d01611bb7565b99505060208a013567ffffffffffffffff811115611ccb57611cca6116d3565b5b611cd78c828d01611a39565b9850506040611ce88c828d016116f9565b9750506060611cf98c828d016116f9565b9650506080611d0a8c828d01611bb7565b95505060a0611d1b8c828d016116f9565b94505060c0611d2c8c828d01611c64565b93505060e0611d3d8c828d01611bb7565b925050610100611d4f8c828d016116f9565b9150509295985092959850929598565b600060208284031215611d7557611d746116ce565b5b6000611d8384828501611bb7565b91505092915050565b7f4e487b7100000000000000000000000000000000000000000000000000000000600052602260045260246000fd5b60006002820490506001821680611dd357607f821691505b602082108103611de657611de5611d8c565b5b50919050565b7f4e487b7100000000000000000000000000000000000000000000000000000000600052601160045260246000fd5b6000611e26826116d8565b9150611e31836116d8565b9250828203905081811115611e4957611e48611dec565b5b92915050565b7f496e73756666696369656e742066756e64730000000000000000000000000000600082015250565b6000611e85601283611796565b9150611e9082611e4f565b602082019050919050565b60006020820190508181036000830152611eb481611e78565b9050919050565b7f5374616b6520616d6f756e74206d757374206d617463682073656e742076616c60008201527f7565000000000000000000000000000000000000000000000000000000000000602082015250565b6000611f17602283611796565b9150611f2282611ebb565b604082019050919050565b60006020820190508181036000830152611f4681611f0a565b9050919050565b7f4475726174696f6e206d7573742062652067726561746572207468616e203000600082015250565b6000611f83601f83611796565b9150611f8e82611f4d565b602082019050919050565b60006020820190508181036000830152611fb281611f76565b9050919050565b60008190508160005260206000209050919050565b60006020601f8301049050919050565b600082821b905092915050565b60006008830261201b7fffffffffffffffffffffffffffffffffffffffffffffffffffffffffffffffff82611fde565b6120258683611fde565b95508019841693508086168417925050509392505050565b6000819050919050565b600061206261205d612058846116d8565b61203d565b6116d8565b9050919050565b6000819050919050565b61207c83612047565b61209061208882612069565b848454611feb565b825550505050565b600090565b6120a5612098565b6120b0818484612073565b505050565b5b818110156120d4576120c960008261209d565b6001810190506120b6565b5050565b601f821115612119576120ea81611fb9565b6120f384611fce565b81016020851015612102578190505b61211661210e85611fce565b8301826120b5565b50505b505050565b600082821c905092915050565b600061213c6000198460080261211e565b1980831691505092915050565b6000612155838361212b565b9150826002028217905092915050565b61216e8261178b565b67ffffffffffffffff8111156121875761218661193c565b5b6121918254611dbb565b61219c8282856120d8565b600060209050601f8311600181146121cf57600084156121bd578287015190505b6121c78582612149565b86555061222f565b601f1984166121dd86611fb9565b60005b82811015612205578489015182556001820191506020850194506020810190506121e0565b86831015612222578489015161221e601f89168261212b565b8355505b6001600288020188555050505b505050505050565b600060608201905061224c600083018661177c565b818103602083015261225e81856117e2565b905061226d604083018461177c565b949350505050565b7f42657420646f6573206e6f742065786973740000000000000000000000000000600082015250565b60006122ab601283611796565b91506122b682612275565b602082019050919050565b600060208201905081810360008301526122da8161229e565b9050919050565b7f42657420616c7265616479206163636570746564000000000000000000000000600082015250565b6000612317601483611796565b9150612322826122e1565b602082019050919050565b600060208201905081810360008301526123468161230a565b9050919050565b7f42657420616c726561647920736574746c656400000000000000000000000000600082015250565b6000612383601383611796565b915061238e8261234d565b602082019050919050565b600060208201905081810360008301526123b281612376565b9050919050565b7f5374616b6520616d6f756e74206d757374206d61746368000000000000000000600082015250565b60006123ef601783611796565b91506123fa826123b9565b602082019050919050565b6000602082019050818103600083015261241e816123e2565b9050919050565b6000612430826116d8565b915061243b836116d8565b925082820190508082111561245357612452611dec565b5b92915050565b600060208201905061246e600083018461177c565b92915050565b7f4f6e6c79206368616c6c656e6765722063616e206d6f64696679000000000000600082015250565b60006124aa601a83611796565b91506124b582612474565b602082019050919050565b600060208201905081810360008301526124d98161249d565b9050919050565b7f4e487b7100000000000000000000000000000000000000000000000000000000600052602160045260246000fd5b7f43616e6e6f74206d6f64696679206163636570746564206368616c6c656e6765600082015250565b6000612545602083611796565b91506125508261250f565b602082019050919050565b6000602082019050818103600083015261257481612538565b9050919050565b6000604082019050818103600083015261259581856117e2565b90506125a4602083018461177c565b9392505050565b7f426574206e6f7420796574206163636570746564000000000000000000000000600082015250565b60006125e1601483611796565b91506125ec826125ab565b602082019050919050565b60006020820190508181036000830152612610816125d4565b9050919050565b7f4475726174696f6e206e6f7420656e6465640000000000000000000000000000600082015250565b600061264d601283611796565b915061265882612617565b602082019050919050565b6000602082019050818103600083015261267c81612640565b9050919050565b7f57696e6e6572206d7573742062652061207061727469636970616e7400000000600082015250565b60006126b9601c83611796565b91506126c482612683565b602082019050919050565b600060208201905081810360008301526126e8816126ac565b9050919050565b6000604082019050612704600083018561176d565b612711602083018461177c565b9392505050565b7f53746172742074696d65206d75737420626520696e2074686520667574757265600082015250565b600061274e602083611796565b915061275982612718565b602082019050919050565b6000602082019050818103600083015261277d81612741565b9050919050565b7f456e642074696d65206d7573742062652061667465722073746172742074696d60008201527f6500000000000000000000000000000000000000000000000000000000000000602082015250565b60006127e0602183611796565b91506127eb82612784565b604082019050919050565b6000602082019050818103600083015261280f816127d3565b9050919050565b7f496e76616c696420766f74696e67207468726573686f6c640000000000000000600082015250565b600061284c601883611796565b915061285782612816565b602082019050919050565b6000602082019050818103600083015261287b8161283f565b9050919050565b7f4172626974657220726571756972656420666f72207468697320747970650000600082015250565b60006128b8601e83611796565b91506128c382612882565b602082019050919050565b600060208201905081810360008301526128e7816128ab565b9050919050565b6000608082019050612903600083018761177c565b818103602083015261291581866117e2565b9050612924604083018561177c565b612931606083018461177c565b95945050505050565b7f4f776e61626c653a206e6577206f776e657220697320746865207a65726f206160008201527f6464726573730000000000000000000000000000000000000000000000000000602082015250565b6000612996602683611796565b91506129a18261293a565b604082019050919050565b600060208201905081810360008301526129c581612989565b9050919050565b7f5265656e7472616e637947756172643a207265656e7472616e742063616c6c00600082015250565b6000612a02601f83611796565b9150612a0d826129cc565b602082019050919050565b60006020820190508181036000830152612a31816129f5565b9050919050565b7f4f776e61626c653a2063616c6c6572206973206e6f7420746865206f776e6572600082015250565b6000612a6e602083611796565b9150612a7982612a38565b602082019050919050565b60006020820190508181036000830152612a9d81612a61565b9050919050565b7f5061757361626c653a2070617573656400000000000000000000000000000000600082015250565b6000612ada601083611796565b9150612ae582612aa4565b602082019050919050565b60006020820190508181036000830152612b0981612acd565b905091905056fea264697066735822122058e99c703b9828227551721a63a4a28fef1d4ff64d18db6639f65907d526bf8364736f6c63430008130033",
  "linkReferences": {},
  "deployedLinkReferences": {}
}