{
  "_format": "hh-sol-artifact-1",
  "contractName": "SocialPlatformTracker",
  "sourceName": "contracts/HelperBetting.sol",
  "abi": [
    {
      "anonymous": false,
      "inputs": [
        {
          "indexed": true,
          "internalType": "address",
          "name": "user",
          "type": "address"
        },
        {
          "indexed": false,
          "internalType": "string",
          "name": "activityType",
          "type": "string"
        },
        {
          "indexed": false,
          "internalType": "uint256",
          "name": "timestamp",
          "type": "uint256"
        }
      ],
      "name": "ActivityLogged",
      "type": "event"
    },
    {
      "anonymous": false,
      "inputs": [
        {
          "indexed": true,
          "internalType": "address",
          "name": "user",
          "type": "address"
        },
        {
          "indexed": false,
          "internalType": "uint256",
          "name": "reputation",
          "type": "uint256"
        },
        {
          "indexed": false,
          "internalType": "uint256",
          "name": "totalEarnings",
          "type": "uint256"
        }
      ],
      "name": "LeaderboardUpdated",
      "type": "event"
    },
    {
      "anonymous": false,
      "inputs": [
        {
          "indexed": true,
          "internalType": "address",
          "name": "recipient",
          "type": "address"
        },
        {
          "indexed": true,
          "internalType": "enum SocialPlatformTracker.NotificationType",
          "name": "notificationType",
          "type": "uint8"
        }
      ],
      "name": "NotificationCreated",
      "type": "event"
    },
    {
      "anonymous": false,
      "inputs": [
        {
          "indexed": true,
          "internalType": "address",
          "name": "previousOwner",
          "type": "address"
        },
        {
          "indexed": true,
          "internalType": "address",
          "name": "newOwner",
          "type": "address"
        }
      ],
      "name": "OwnershipTransferred",
      "type": "event"
    },
    {
      "inputs": [
        {
          "internalType": "address",
          "name": "",
          "type": "address"
        },
        {
          "internalType": "enum SocialPlatformTracker.ChallengeState",
          "name": "",
          "type": "uint8"
        },
        {
          "internalType": "uint256",
          "name": "",
          "type": "uint256"
        }
      ],
      "name": "categorizedChallenges",
      "outputs": [
        {
          "internalType": "uint256",
          "name": "",
          "type": "uint256"
        }
      ],
      "stateMutability": "view",
      "type": "function"
    },
    {
      "inputs": [
        {
          "internalType": "address",
          "name": "_recipient",
          "type": "address"
        },
        {
          "internalType": "enum SocialPlatformTracker.NotificationType",
          "name": "_type",
          "type": "uint8"
        },
        {
          "internalType": "uint256",
          "name": "_challengeId",
          "type": "uint256"
        },
        {
          "internalType": "uint256",
          "name": "_amount",
          "type": "uint256"
        }
      ],
      "name": "createNotification",
      "outputs": [],
      "stateMutability": "nonpayable",
      "type": "function"
    },
    {
      "inputs": [
        {
          "internalType": "address",
          "name": "_user",
          "type": "address"
        },
        {
          "internalType": "enum SocialPlatformTracker.ChallengeState",
          "name": "_state",
          "type": "uint8"
        }
      ],
      "name": "getChallengesByState",
      "outputs": [
        {
          "internalType": "uint256[]",
          "name": "",
          "type": "uint256[]"
        }
      ],
      "stateMutability": "view",
      "type": "function"
    },
    {
      "inputs": [
        {
          "internalType": "uint256",
          "name": "_count",
          "type": "uint256"
        }
      ],
      "name": "getTopLeaderboard",
      "outputs": [
        {
          "components": [
            {
              "internalType": "address",
              "name": "user",
              "type": "address"
            },
            {
              "internalType": "uint256",
              "name": "totalChallenges",
              "type": "uint256"
            },
            {
              "internalType": "uint256",
              "name": "wonChallenges",
              "type": "uint256"
            },
            {
              "internalType": "uint256",
              "name": "lostChallenges",
              "type": "uint256"
            },
            {
              "internalType": "uint256",
              "name": "reputation",
              "type": "uint256"
            },
            {
              "internalType": "uint256",
              "name": "totalEarnings",
              "type": "uint256"
            }
          ],
          "internalType": "struct SocialPlatformTracker.LeaderboardEntry[]",
          "name": "",
          "type": "tuple[]"
        }
      ],
      "stateMutability": "view",
      "type": "function"
    },
    {
      "inputs": [
        {
          "internalType": "address",
          "name": "_user",
          "type": "address"
        }
      ],
      "name": "getUnreadNotificationCount",
      "outputs": [
        {
          "internalType": "uint256",
          "name": "",
          "type": "uint256"
        }
      ],
      "stateMutability": "view",
      "type": "function"
    },
    {
      "inputs": [
        {
          "internalType": "address",
          "name": "_user",
          "type": "address"
        }
      ],
      "name": "getUserChallengeStats",
      "outputs": [
        {
          "internalType": "uint256",
          "name": "totalChallenges",
          "type": "uint256"
        },
        {
          "internalType": "uint256",
          "name": "pendingChallenges",
          "type": "uint256"
        },
        {
          "internalType": "uint256",
          "name": "activeChallenges",
          "type": "uint256"
        },
        {
          "internalType": "uint256",
          "name": "wonChallenges",
          "type": "uint256"
        },
        {
          "internalType": "uint256",
          "name": "lostChallenges",
          "type": "uint256"
        },
        {
          "internalType": "uint256",
          "name": "declinedChallenges",
          "type": "uint256"
        }
      ],
      "stateMutability": "view",
      "type": "function"
    },
    {
      "inputs": [
        {
          "internalType": "address",
          "name": "",
          "type": "address"
        }
      ],
      "name": "leaderboardEntries",
      "outputs": [
        {
          "internalType": "address",
          "name": "user",
          "type": "address"
        },
        {
          "internalType": "uint256",
          "name": "totalChallenges",
          "type": "uint256"
        },
        {
          "internalType": "uint256",
          "name": "wonChallenges",
          "type": "uint256"
        },
        {
          "internalType": "uint256",
          "name": "lostChallenges",
          "type": "uint256"
        },
        {
          "internalType": "uint256",
          "name": "reputation",
          "type": "uint256"
        },
        {
          "internalType": "uint256",
          "name": "totalEarnings",
          "type": "uint256"
        }
      ],
      "stateMutability": "view",
      "type": "function"
    },
    {
      "inputs": [
        {
          "internalType": "uint256",
          "name": "",
          "type": "uint256"
        }
      ],
      "name": "leaderboardUsers",
      "outputs": [
        {
          "internalType": "address",
          "name": "",
          "type": "address"
        }
      ],
      "stateMutability": "view",
      "type": "function"
    },
    {
      "inputs": [
        {
          "internalType": "address",
          "name": "_user",
          "type": "address"
        },
        {
          "internalType": "string",
          "name": "_activityType",
          "type": "string"
        },
        {
          "internalType": "uint256",
          "name": "_challengeId",
          "type": "uint256"
        },
        {
          "internalType": "uint256",
          "name": "_amount",
          "type": "uint256"
        }
      ],
      "name": "logActivity",
      "outputs": [],
      "stateMutability": "nonpayable",
      "type": "function"
    },
    {
      "inputs": [
        {
          "internalType": "uint256[]",
          "name": "_notificationIds",
          "type": "uint256[]"
        }
      ],
      "name": "markNotificationsAsRead",
      "outputs": [],
      "stateMutability": "nonpayable",
      "type": "function"
    },
    {
      "inputs": [],
      "name": "owner",
      "outputs": [
        {
          "internalType": "address",
          "name": "",
          "type": "address"
        }
      ],
      "stateMutability": "view",
      "type": "function"
    },
    {
      "inputs": [],
      "name": "renounceOwnership",
      "outputs": [],
      "stateMutability": "nonpayable",
      "type": "function"
    },
    {
      "inputs": [
        {
          "internalType": "address",
          "name": "newOwner",
          "type": "address"
        }
      ],
      "name": "transferOwnership",
      "outputs": [],
      "stateMutability": "nonpayable",
      "type": "function"
    },
    {
      "inputs": [
        {
          "internalType": "address",
          "name": "_user",
          "type": "address"
        },
        {
          "internalType": "uint256",
          "name": "_challengeId",
          "type": "uint256"
        },
        {
          "internalType": "enum SocialPlatformTracker.ChallengeState",
          "name": "_newState",
          "type": "uint8"
        }
      ],
      "name": "updateChallengeState",
      "outputs": [],
      "stateMutability": "nonpayable",
      "type": "function"
    },
    {
      "inputs": [
        {
          "internalType": "address",
          "name": "_user",
          "type": "address"
        },
        {
          "internalType": "bool",
          "name": "_won",
          "type": "bool"
        },
        {
          "internalType": "uint256",
          "name": "_amount",
          "type": "uint256"
        }
      ],
      "name": "updateLeaderboard",
      "outputs": [],
      "stateMutability": "nonpayable",
      "type": "function"
    },
    {
      "inputs": [
        {
          "internalType": "address",
          "name": "",
          "type": "address"
        },
        {
          "internalType": "uint256",
          "name": "",
          "type": "uint256"
        }
      ],
      "name": "userActivities",
      "outputs": [
        {
          "internalType": "uint256",
          "name": "id",
          "type": "uint256"
        },
        {
          "internalType": "address",
          "name": "user",
          "type": "address"
        },
        {
          "internalType": "string",
          "name": "activityType",
          "type": "string"
        },
        {
          "internalType": "uint256",
          "name": "timestamp",
          "type": "uint256"
        },
        {
          "internalType": "uint256",
          "name": "challengeId",
          "type": "uint256"
        },
        {
          "internalType": "uint256",
          "name": "amount",
          "type": "uint256"
        }
      ],
      "stateMutability": "view",
      "type": "function"
    },
    {
      "inputs": [
        {
          "internalType": "address",
          "name": "",
          "type": "address"
        },
        {
          "internalType": "uint256",
          "name": "",
          "type": "uint256"
        }
      ],
      "name": "userChallengesByState",
      "outputs": [
        {
          "internalType": "uint256",
          "name": "",
          "type": "uint256"
        }
      ],
      "stateMutability": "view",
      "type": "function"
    },
    {
      "inputs": [
        {
          "internalType": "address",
          "name": "",
          "type": "address"
        },
        {
          "internalType": "uint256",
          "name": "",
          "type": "uint256"
        }
      ],
      "name": "userNotifications",
      "outputs": [
        {
          "internalType": "uint256",
          "name": "id",
          "type": "uint256"
        },
        {
          "internalType": "address",
          "name": "recipient",
          "type": "address"
        },
        {
          "internalType": "enum SocialPlatformTracker.NotificationType",
          "name": "notificationType",
          "type": "uint8"
        },
        {
          "internalType": "uint256",
          "name": "timestamp",
          "type": "uint256"
        },
        {
          "internalType": "uint256",
          "name": "challengeId",
          "type": "uint256"
        },
        {
          "internalType": "uint256",
          "name": "amount",
          "type": "uint256"
        },
        {
          "internalType": "bool",
          "name": "isRead",
          "type": "bool"
        }
      ],
      "stateMutability": "view",
      "type": "function"
    }
  ],
  "bytecode": "0x60806040523480156200001157600080fd5b5062000032620000266200003860201b60201c565b6200004060201b60201c565b62000104565b600033905090565b60008060009054906101000a900473ffffffffffffffffffffffffffffffffffffffff169050816000806101000a81548173ffffffffffffffffffffffffffffffffffffffff021916908373ffffffffffffffffffffffffffffffffffffffff1602179055508173ffffffffffffffffffffffffffffffffffffffff168173ffffffffffffffffffffffffffffffffffffffff167f8be0079c531659141344cd1fd0a4f28419497f9722a3daafe3b4186f6b6457e060405160405180910390a35050565b612b6b80620001146000396000f3fe608060405234801561001057600080fd5b50600436106101165760003560e01c8063b38b27bb116100a2578063e00df13511610071578063e00df13514610327578063e630591714610357578063e7df4ce71461038c578063ea3f7461146103a8578063f2fde38b146103c457610116565b8063b38b27bb1461028f578063b3f97211146102bf578063b5a4cceb146102db578063df6e406a146102f757610116565b8063715018a6116100e9578063715018a6146101d25780637730ce69146101dc5780638da5cb5b1461020c5780639d8a80b81461022a5780639ef39d781461025f57610116565b806313e407bf1461011b578063161dcb161461014b5780632e092f9d1461016757806338c919101461019c575b600080fd5b61013560048036038101906101309190611aa8565b6103e0565b6040516101429190611c4f565b60405180910390f35b61016560048036038101906101609190611cd5565b6106d2565b005b610181600480360381019061017c9190611d28565b610930565b60405161019396959493929190611e16565b60405180910390f35b6101b660048036038101906101b19190611d28565b610a31565b6040516101c99796959493929190611f04565b60405180910390f35b6101da610aca565b005b6101f660048036038101906101f19190611d28565b610ade565b6040516102039190611f73565b60405180910390f35b610214610b0f565b6040516102219190611f8e565b60405180910390f35b610244600480360381019061023f9190611fa9565b610b38565b60405161025696959493929190611fd6565b60405180910390f35b61027960048036038101906102749190611fa9565b610da6565b6040516102869190611f73565b60405180910390f35b6102a960048036038101906102a4919061205c565b610f71565b6040516102b69190611f73565b60405180910390f35b6102d960048036038101906102d491906120af565b610faf565b005b6102f560048036038101906102f0919061224a565b611183565b005b610311600480360381019061030c9190612293565b611310565b60405161031e9190612382565b60405180910390f35b610341600480360381019061033c9190611aa8565b6113dd565b60405161034e9190611f8e565b60405180910390f35b610371600480360381019061036c9190611fa9565b61141c565b604051610383969594939291906123a4565b60405180910390f35b6103a660048036038101906103a191906124ba565b611478565b005b6103c260048036038101906103bd9190612562565b61161f565b005b6103de60048036038101906103d99190611fa9565b611821565b005b606060008267ffffffffffffffff8111156103fe576103fd612107565b5b60405190808252806020026020018201604052801561043757816020015b610424611a12565b81526020019060019003908161041c5790505b50905060005b6002805490508110156106c85760005b848110156106b457828181518110610468576104676125c9565b5b602002602001015160800151600160006002858154811061048c5761048b6125c9565b5b9060005260206000200160009054906101000a900473ffffffffffffffffffffffffffffffffffffffff1673ffffffffffffffffffffffffffffffffffffffff1673ffffffffffffffffffffffffffffffffffffffff1681526020019081526020016000206004015411156106a157600060018661050a9190612627565b90505b8181111561056d57836001826105239190612627565b81518110610534576105336125c9565b5b602002602001015184828151811061054f5761054e6125c9565b5b602002602001018190525080806105659061265b565b91505061050d565b506001600060028481548110610586576105856125c9565b5b9060005260206000200160009054906101000a900473ffffffffffffffffffffffffffffffffffffffff1673ffffffffffffffffffffffffffffffffffffffff1673ffffffffffffffffffffffffffffffffffffffff1681526020019081526020016000206040518060c00160405290816000820160009054906101000a900473ffffffffffffffffffffffffffffffffffffffff1673ffffffffffffffffffffffffffffffffffffffff1673ffffffffffffffffffffffffffffffffffffffff16815260200160018201548152602001600282015481526020016003820154815260200160048201548152602001600582015481525050838281518110610691576106906125c9565b5b60200260200101819052506106b4565b80806106ac90612684565b91505061044d565b5080806106c090612684565b91505061043d565b5080915050919050565b6000600160008573ffffffffffffffffffffffffffffffffffffffff1673ffffffffffffffffffffffffffffffffffffffff168152602001908152602001600020905080600101600081548092919061072a90612684565b9190505550821561078b5780600201600081548092919061074a90612684565b9190505550600a81600401600082825461076491906126cc565b925050819055508181600501600082825461077f91906126cc565b925050819055506107d3565b8060030160008154809291906107a090612684565b919050555060058160040154116107b85760006107ca565b600581600401546107c99190612627565b5b81600401819055505b600073ffffffffffffffffffffffffffffffffffffffff168160000160009054906101000a900473ffffffffffffffffffffffffffffffffffffffff1673ffffffffffffffffffffffffffffffffffffffff16036108d257838160000160006101000a81548173ffffffffffffffffffffffffffffffffffffffff021916908373ffffffffffffffffffffffffffffffffffffffff1602179055506002849080600181540180825580915050600190039060005260206000200160009091909190916101000a81548173ffffffffffffffffffffffffffffffffffffffff021916908373ffffffffffffffffffffffffffffffffffffffff1602179055505b8373ffffffffffffffffffffffffffffffffffffffff167f5c874adf9d1c93ab636130bb7e727993f1d6a3d33d1ffd925556815d0eec230882600401548360050154604051610922929190612700565b60405180910390a250505050565b6005602052816000526040600020818154811061094c57600080fd5b9060005260206000209060060201600091509150508060000154908060010160009054906101000a900473ffffffffffffffffffffffffffffffffffffffff169080600201805461099c90612758565b80601f01602080910402602001604051908101604052809291908181526020018280546109c890612758565b8015610a155780601f106109ea57610100808354040283529160200191610a15565b820191906000526020600020905b8154815290600101906020018083116109f857829003601f168201915b5050505050908060030154908060040154908060050154905086565b60036020528160005260406000208181548110610a4d57600080fd5b9060005260206000209060060201600091509150508060000154908060010160009054906101000a900473ffffffffffffffffffffffffffffffffffffffff16908060010160149054906101000a900460ff16908060020154908060030154908060040154908060050160009054906101000a900460ff16905087565b610ad26118a4565b610adc6000611922565b565b60076020528160005260406000208181548110610afa57600080fd5b90600052602060002001600091509150505481565b60008060009054906101000a900473ffffffffffffffffffffffffffffffffffffffff16905090565b6000806000806000806000600160008973ffffffffffffffffffffffffffffffffffffffff1673ffffffffffffffffffffffffffffffffffffffff1681526020019081526020016000206040518060c00160405290816000820160009054906101000a900473ffffffffffffffffffffffffffffffffffffffff1673ffffffffffffffffffffffffffffffffffffffff1673ffffffffffffffffffffffffffffffffffffffff1681526020016001820154815260200160028201548152602001600382015481526020016004820154815260200160058201548152505090508060200151600860008a73ffffffffffffffffffffffffffffffffffffffff1673ffffffffffffffffffffffffffffffffffffffff1681526020019081526020016000206000806006811115610c7057610c6f611e7e565b5b6006811115610c8257610c81611e7e565b5b815260200190815260200160002080549050600860008b73ffffffffffffffffffffffffffffffffffffffff1673ffffffffffffffffffffffffffffffffffffffff168152602001908152602001600020600060026006811115610ce957610ce8611e7e565b5b6006811115610cfb57610cfa611e7e565b5b81526020019081526020016000208054905083604001518460600151600860008e73ffffffffffffffffffffffffffffffffffffffff1673ffffffffffffffffffffffffffffffffffffffff168152602001908152602001600020600060056006811115610d6c57610d6b611e7e565b5b6006811115610d7e57610d7d611e7e565b5b8152602001908152602001600020805490509650965096509650965096505091939550919395565b600080600360008473ffffffffffffffffffffffffffffffffffffffff1673ffffffffffffffffffffffffffffffffffffffff168152602001908152602001600020805480602002602001604051908101604052809291908181526020016000905b82821015610f0e57838290600052602060002090600602016040518060e0016040529081600082015481526020016001820160009054906101000a900473ffffffffffffffffffffffffffffffffffffffff1673ffffffffffffffffffffffffffffffffffffffff1673ffffffffffffffffffffffffffffffffffffffff1681526020016001820160149054906101000a900460ff166006811115610eb057610eaf611e7e565b5b6006811115610ec257610ec1611e7e565b5b81526020016002820154815260200160038201548152602001600482015481526020016005820160009054906101000a900460ff16151515158152505081526020019060010190610e08565b5050505090506000805b8251811015610f6657828181518110610f3457610f336125c9565b5b602002602001015160c00151610f53578180610f4f90612684565b9250505b8080610f5e90612684565b915050610f18565b508092505050919050565b60086020528260005260406000206020528160005260406000208181548110610f9957600080fd5b9060005260206000200160009250925050505481565b60005b600860008573ffffffffffffffffffffffffffffffffffffffff1673ffffffffffffffffffffffffffffffffffffffff168152602001908152602001600020600083600681111561100657611005611e7e565b5b600681111561101857611017611e7e565b5b8152602001908152602001600020805490508110156110e15782600860008673ffffffffffffffffffffffffffffffffffffffff1673ffffffffffffffffffffffffffffffffffffffff168152602001908152602001600020600084600681111561108657611085611e7e565b5b600681111561109857611097611e7e565b5b815260200190815260200160002082815481106110b8576110b76125c9565b5b9060005260206000200154036110ce575061117e565b80806110d990612684565b915050610fb2565b50600860008473ffffffffffffffffffffffffffffffffffffffff1673ffffffffffffffffffffffffffffffffffffffff168152602001908152602001600020600082600681111561113657611135611e7e565b5b600681111561114857611147611e7e565b5b81526020019081526020016000208290806001815401808255809150506001900390600052602060002001600090919091909150555b505050565b6000600360003373ffffffffffffffffffffffffffffffffffffffff1673ffffffffffffffffffffffffffffffffffffffff168152602001908152602001600020905060005b825181101561130b5760005b82805490508110156112f7578382815181106111f4576111f36125c9565b5b602002602001015183828154811061120f5761120e6125c9565b5b90600052602060002090600602016000015414801561129d57503373ffffffffffffffffffffffffffffffffffffffff16838281548110611253576112526125c9565b5b906000526020600020906006020160010160009054906101000a900473ffffffffffffffffffffffffffffffffffffffff1673ffffffffffffffffffffffffffffffffffffffff16145b156112e45760018382815481106112b7576112b66125c9565b5b906000526020600020906006020160050160006101000a81548160ff0219169083151502179055506112f7565b80806112ef90612684565b9150506111d5565b50808061130390612684565b9150506111c9565b505050565b6060600860008473ffffffffffffffffffffffffffffffffffffffff1673ffffffffffffffffffffffffffffffffffffffff168152602001908152602001600020600083600681111561136657611365611e7e565b5b600681111561137857611377611e7e565b5b81526020019081526020016000208054806020026020016040519081016040528092919081815260200182805480156113d057602002820191906000526020600020905b8154815260200190600101908083116113bc575b5050505050905092915050565b600281815481106113ed57600080fd5b906000526020600020016000915054906101000a900473ffffffffffffffffffffffffffffffffffffffff1681565b60016020528060005260406000206000915090508060000160009054906101000a900473ffffffffffffffffffffffffffffffffffffffff16908060010154908060020154908060030154908060040154908060050154905086565b61148260066119e6565b600061148e60066119fc565b905060006040518060c001604052808381526020018773ffffffffffffffffffffffffffffffffffffffff168152602001868152602001428152602001858152602001848152509050600560008773ffffffffffffffffffffffffffffffffffffffff1673ffffffffffffffffffffffffffffffffffffffff1681526020019081526020016000208190806001815401808255809150506001900390600052602060002090600602016000909190919091506000820151816000015560208201518160010160006101000a81548173ffffffffffffffffffffffffffffffffffffffff021916908373ffffffffffffffffffffffffffffffffffffffff16021790555060408201518160020190816115a69190612935565b50606082015181600301556080820151816004015560a0820151816005015550508573ffffffffffffffffffffffffffffffffffffffff167f25f72415708c936319614418d512239106d969185c421269609e55e356167fd9864260405161160f929190612a07565b60405180910390a2505050505050565b61162960046119e6565b600061163560046119fc565b905060006040518060e001604052808381526020018773ffffffffffffffffffffffffffffffffffffffff16815260200186600681111561167957611678611e7e565b5b8152602001428152602001858152602001848152602001600015158152509050600360008773ffffffffffffffffffffffffffffffffffffffff1673ffffffffffffffffffffffffffffffffffffffff1681526020019081526020016000208190806001815401808255809150506001900390600052602060002090600602016000909190919091506000820151816000015560208201518160010160006101000a81548173ffffffffffffffffffffffffffffffffffffffff021916908373ffffffffffffffffffffffffffffffffffffffff16021790555060408201518160010160146101000a81548160ff0219169083600681111561177e5761177d611e7e565b5b0217905550606082015181600201556080820151816003015560a0820151816004015560c08201518160050160006101000a81548160ff02191690831515021790555050508460068111156117d6576117d5611e7e565b5b8673ffffffffffffffffffffffffffffffffffffffff167f72e00a154ce02e872c13f573d143eb655b0da27ab3adbea94a7fc677178d806560405160405180910390a3505050505050565b6118296118a4565b600073ffffffffffffffffffffffffffffffffffffffff168173ffffffffffffffffffffffffffffffffffffffff1603611898576040517f08c379a000000000000000000000000000000000000000000000000000000000815260040161188f90612aa9565b60405180910390fd5b6118a181611922565b50565b6118ac611a0a565b73ffffffffffffffffffffffffffffffffffffffff166118ca610b0f565b73ffffffffffffffffffffffffffffffffffffffff1614611920576040517f08c379a000000000000000000000000000000000000000000000000000000000815260040161191790612b15565b60405180910390fd5b565b60008060009054906101000a900473ffffffffffffffffffffffffffffffffffffffff169050816000806101000a81548173ffffffffffffffffffffffffffffffffffffffff021916908373ffffffffffffffffffffffffffffffffffffffff1602179055508173ffffffffffffffffffffffffffffffffffffffff168173ffffffffffffffffffffffffffffffffffffffff167f8be0079c531659141344cd1fd0a4f28419497f9722a3daafe3b4186f6b6457e060405160405180910390a35050565b6001816000016000828254019250508190555050565b600081600001549050919050565b600033905090565b6040518060c00160405280600073ffffffffffffffffffffffffffffffffffffffff16815260200160008152602001600081526020016000815260200160008152602001600081525090565b6000604051905090565b600080fd5b600080fd5b6000819050919050565b611a8581611a72565b8114611a9057600080fd5b50565b600081359050611aa281611a7c565b92915050565b600060208284031215611abe57611abd611a68565b5b6000611acc84828501611a93565b91505092915050565b600081519050919050565b600082825260208201905092915050565b6000819050602082019050919050565b600073ffffffffffffffffffffffffffffffffffffffff82169050919050565b6000611b2c82611b01565b9050919050565b611b3c81611b21565b82525050565b611b4b81611a72565b82525050565b60c082016000820151611b676000850182611b33565b506020820151611b7a6020850182611b42565b506040820151611b8d6040850182611b42565b506060820151611ba06060850182611b42565b506080820151611bb36080850182611b42565b5060a0820151611bc660a0850182611b42565b50505050565b6000611bd88383611b51565b60c08301905092915050565b6000602082019050919050565b6000611bfc82611ad5565b611c068185611ae0565b9350611c1183611af1565b8060005b83811015611c42578151611c298882611bcc565b9750611c3483611be4565b925050600181019050611c15565b5085935050505092915050565b60006020820190508181036000830152611c698184611bf1565b905092915050565b611c7a81611b21565b8114611c8557600080fd5b50565b600081359050611c9781611c71565b92915050565b60008115159050919050565b611cb281611c9d565b8114611cbd57600080fd5b50565b600081359050611ccf81611ca9565b92915050565b600080600060608486031215611cee57611ced611a68565b5b6000611cfc86828701611c88565b9350506020611d0d86828701611cc0565b9250506040611d1e86828701611a93565b9150509250925092565b60008060408385031215611d3f57611d3e611a68565b5b6000611d4d85828601611c88565b9250506020611d5e85828601611a93565b9150509250929050565b611d7181611a72565b82525050565b611d8081611b21565b82525050565b600081519050919050565b600082825260208201905092915050565b60005b83811015611dc0578082015181840152602081019050611da5565b60008484015250505050565b6000601f19601f8301169050919050565b6000611de882611d86565b611df28185611d91565b9350611e02818560208601611da2565b611e0b81611dcc565b840191505092915050565b600060c082019050611e2b6000830189611d68565b611e386020830188611d77565b8181036040830152611e4a8187611ddd565b9050611e596060830186611d68565b611e666080830185611d68565b611e7360a0830184611d68565b979650505050505050565b7f4e487b7100000000000000000000000000000000000000000000000000000000600052602160045260246000fd5b60078110611ebe57611ebd611e7e565b5b50565b6000819050611ecf82611ead565b919050565b6000611edf82611ec1565b9050919050565b611eef81611ed4565b82525050565b611efe81611c9d565b82525050565b600060e082019050611f19600083018a611d68565b611f266020830189611d77565b611f336040830188611ee6565b611f406060830187611d68565b611f4d6080830186611d68565b611f5a60a0830185611d68565b611f6760c0830184611ef5565b98975050505050505050565b6000602082019050611f886000830184611d68565b92915050565b6000602082019050611fa36000830184611d77565b92915050565b600060208284031215611fbf57611fbe611a68565b5b6000611fcd84828501611c88565b91505092915050565b600060c082019050611feb6000830189611d68565b611ff86020830188611d68565b6120056040830187611d68565b6120126060830186611d68565b61201f6080830185611d68565b61202c60a0830184611d68565b979650505050505050565b6007811061204457600080fd5b50565b60008135905061205681612037565b92915050565b60008060006060848603121561207557612074611a68565b5b600061208386828701611c88565b935050602061209486828701612047565b92505060406120a586828701611a93565b9150509250925092565b6000806000606084860312156120c8576120c7611a68565b5b60006120d686828701611c88565b93505060206120e786828701611a93565b92505060406120f886828701612047565b9150509250925092565b600080fd5b7f4e487b7100000000000000000000000000000000000000000000000000000000600052604160045260246000fd5b61213f82611dcc565b810181811067ffffffffffffffff8211171561215e5761215d612107565b5b80604052505050565b6000612171611a5e565b905061217d8282612136565b919050565b600067ffffffffffffffff82111561219d5761219c612107565b5b602082029050602081019050919050565b600080fd5b60006121c66121c184612182565b612167565b905080838252602082019050602084028301858111156121e9576121e86121ae565b5b835b8181101561221257806121fe8882611a93565b8452602084019350506020810190506121eb565b5050509392505050565b600082601f83011261223157612230612102565b5b81356122418482602086016121b3565b91505092915050565b6000602082840312156122605761225f611a68565b5b600082013567ffffffffffffffff81111561227e5761227d611a6d565b5b61228a8482850161221c565b91505092915050565b600080604083850312156122aa576122a9611a68565b5b60006122b885828601611c88565b92505060206122c985828601612047565b9150509250929050565b600081519050919050565b600082825260208201905092915050565b6000819050602082019050919050565b600061230b8383611b42565b60208301905092915050565b6000602082019050919050565b600061232f826122d3565b61233981856122de565b9350612344836122ef565b8060005b8381101561237557815161235c88826122ff565b975061236783612317565b925050600181019050612348565b5085935050505092915050565b6000602082019050818103600083015261239c8184612324565b905092915050565b600060c0820190506123b96000830189611d77565b6123c66020830188611d68565b6123d36040830187611d68565b6123e06060830186611d68565b6123ed6080830185611d68565b6123fa60a0830184611d68565b979650505050505050565b600080fd5b600067ffffffffffffffff82111561242557612424612107565b5b61242e82611dcc565b9050602081019050919050565b82818337600083830152505050565b600061245d6124588461240a565b612167565b90508281526020810184848401111561247957612478612405565b5b61248484828561243b565b509392505050565b600082601f8301126124a1576124a0612102565b5b81356124b184826020860161244a565b91505092915050565b600080600080608085870312156124d4576124d3611a68565b5b60006124e287828801611c88565b945050602085013567ffffffffffffffff81111561250357612502611a6d565b5b61250f8782880161248c565b935050604061252087828801611a93565b925050606061253187828801611a93565b91505092959194509250565b6007811061254a57600080fd5b50565b60008135905061255c8161253d565b92915050565b6000806000806080858703121561257c5761257b611a68565b5b600061258a87828801611c88565b945050602061259b8782880161254d565b93505060406125ac87828801611a93565b92505060606125bd87828801611a93565b91505092959194509250565b7f4e487b7100000000000000000000000000000000000000000000000000000000600052603260045260246000fd5b7f4e487b7100000000000000000000000000000000000000000000000000000000600052601160045260246000fd5b600061263282611a72565b915061263d83611a72565b9250828203905081811115612655576126546125f8565b5b92915050565b600061266682611a72565b915060008203612679576126786125f8565b5b600182039050919050565b600061268f82611a72565b91507fffffffffffffffffffffffffffffffffffffffffffffffffffffffffffffffff82036126c1576126c06125f8565b5b600182019050919050565b60006126d782611a72565b91506126e283611a72565b92508282019050808211156126fa576126f96125f8565b5b92915050565b60006040820190506127156000830185611d68565b6127226020830184611d68565b9392505050565b7f4e487b7100000000000000000000000000000000000000000000000000000000600052602260045260246000fd5b6000600282049050600182168061277057607f821691505b60208210810361278357612782612729565b5b50919050565b60008190508160005260206000209050919050565b60006020601f8301049050919050565b600082821b905092915050565b6000600883026127eb7fffffffffffffffffffffffffffffffffffffffffffffffffffffffffffffffff826127ae565b6127f586836127ae565b95508019841693508086168417925050509392505050565b6000819050919050565b600061283261282d61282884611a72565b61280d565b611a72565b9050919050565b6000819050919050565b61284c83612817565b61286061285882612839565b8484546127bb565b825550505050565b600090565b612875612868565b612880818484612843565b505050565b5b818110156128a45761289960008261286d565b600181019050612886565b5050565b601f8211156128e9576128ba81612789565b6128c38461279e565b810160208510156128d2578190505b6128e66128de8561279e565b830182612885565b50505b505050565b600082821c905092915050565b600061290c600019846008026128ee565b1980831691505092915050565b600061292583836128fb565b9150826002028217905092915050565b61293e82611d86565b67ffffffffffffffff81111561295757612956612107565b5b6129618254612758565b61296c8282856128a8565b600060209050601f83116001811461299f576000841561298d578287015190505b6129978582612919565b8655506129ff565b601f1984166129ad86612789565b60005b828110156129d5578489015182556001820191506020850194506020810190506129b0565b868310156129f257848901516129ee601f8916826128fb565b8355505b6001600288020188555050505b505050505050565b60006040820190508181036000830152612a218185611ddd565b9050612a306020830184611d68565b9392505050565b7f4f776e61626c653a206e6577206f776e657220697320746865207a65726f206160008201527f6464726573730000000000000000000000000000000000000000000000000000602082015250565b6000612a93602683611d91565b9150612a9e82612a37565b604082019050919050565b60006020820190508181036000830152612ac281612a86565b9050919050565b7f4f776e61626c653a2063616c6c6572206973206e6f7420746865206f776e6572600082015250565b6000612aff602083611d91565b9150612b0a82612ac9565b602082019050919050565b60006020820190508181036000830152612b2e81612af2565b905091905056fea26469706673582212208585199284636574456aad2646c0c7bb481460ed8801fde547487dac2123687b64736f6c63430008130033",
  "linkReferences": {},
  "deployedLinkReferences": {}
}